{
  "contractName": "Voting",
  "abi": [
    {
      "constant": true,
      "inputs": [
        {
          "name": "",
          "type": "bytes32"
        }
      ],
      "name": "votesReceived",
      "outputs": [
        {
          "name": "",
          "type": "uint256"
        }
      ],
      "payable": false,
      "stateMutability": "view",
      "type": "function"
    },
    {
      "constant": true,
      "inputs": [],
      "name": "totalTokens",
      "outputs": [
        {
          "name": "",
          "type": "uint256"
        }
      ],
      "payable": false,
      "stateMutability": "view",
      "type": "function"
    },
    {
      "constant": true,
      "inputs": [],
      "name": "tokenPrice",
      "outputs": [
        {
          "name": "",
          "type": "uint256"
        }
      ],
      "payable": false,
      "stateMutability": "view",
      "type": "function"
    },
    {
      "constant": true,
      "inputs": [
        {
          "name": "",
          "type": "address"
        }
      ],
      "name": "voterInfo",
      "outputs": [
        {
          "name": "voterAddress",
          "type": "address"
        },
        {
          "name": "tokensBought",
          "type": "uint256"
        }
      ],
      "payable": false,
      "stateMutability": "view",
      "type": "function"
    },
    {
      "constant": true,
      "inputs": [
        {
          "name": "",
          "type": "uint256"
        }
      ],
      "name": "candidatesList",
      "outputs": [
        {
          "name": "",
          "type": "bytes32"
        }
      ],
      "payable": false,
      "stateMutability": "view",
      "type": "function"
    },
    {
      "constant": true,
      "inputs": [],
      "name": "balanceTokens",
      "outputs": [
        {
          "name": "",
          "type": "uint256"
        }
      ],
      "payable": false,
      "stateMutability": "view",
      "type": "function"
    },
    {
      "inputs": [
        {
          "name": "tokens",
          "type": "uint256"
        },
        {
          "name": "pricePerToken",
          "type": "uint256"
        },
        {
          "name": "candidateNames",
          "type": "bytes32[]"
        }
      ],
      "payable": false,
      "stateMutability": "nonpayable",
      "type": "constructor"
    },
    {
      "constant": false,
      "inputs": [],
      "name": "buy",
      "outputs": [],
      "payable": true,
      "stateMutability": "payable",
      "type": "function"
    },
    {
      "constant": true,
      "inputs": [
        {
          "name": "candidate",
          "type": "bytes32"
        }
      ],
      "name": "totalVotesFor",
      "outputs": [
        {
          "name": "",
          "type": "uint256"
        }
      ],
      "payable": false,
      "stateMutability": "view",
      "type": "function"
    },
    {
      "constant": false,
      "inputs": [
        {
          "name": "candidate",
          "type": "bytes32"
        },
        {
          "name": "votesInTokens",
          "type": "uint256"
        }
      ],
      "name": "VoteForCandidate",
      "outputs": [],
      "payable": false,
      "stateMutability": "nonpayable",
      "type": "function"
    },
    {
      "constant": true,
      "inputs": [
        {
          "name": "candidate",
          "type": "bytes32"
        }
      ],
      "name": "indexOfCandidate",
      "outputs": [
        {
          "name": "",
          "type": "uint256"
        }
      ],
      "payable": false,
      "stateMutability": "view",
      "type": "function"
    },
    {
      "constant": true,
      "inputs": [],
      "name": "tokensSold",
      "outputs": [
        {
          "name": "",
          "type": "uint256"
        }
      ],
      "payable": false,
      "stateMutability": "view",
      "type": "function"
    },
    {
      "constant": true,
      "inputs": [
        {
          "name": "user",
          "type": "address"
        }
      ],
      "name": "voterDetails",
      "outputs": [
        {
          "name": "",
          "type": "uint256"
        },
        {
          "name": "",
          "type": "uint256[]"
        }
      ],
      "payable": false,
      "stateMutability": "view",
      "type": "function"
    },
    {
      "constant": false,
      "inputs": [
        {
          "name": "account",
          "type": "address"
        }
      ],
      "name": "transferTo",
      "outputs": [],
      "payable": false,
      "stateMutability": "nonpayable",
      "type": "function"
    },
    {
      "constant": true,
      "inputs": [],
      "name": "allCandidates",
      "outputs": [
        {
          "name": "",
          "type": "bytes32[]"
        }
      ],
      "payable": false,
      "stateMutability": "view",
      "type": "function"
    }
  ],
  "bytecode": "0x608060405234801561001057600080fd5b50604051610cc4380380610cc4833981018060405281019080805190602001909291908051906020019092919080518201929190505050806002908051906020019061005d92919061007b565b508260038190555082600481905550816005819055505050506100f3565b8280548282559060005260206000209081019282156100bd579160200282015b828111156100bc57825182906000191690559160200191906001019061009b565b5b5090506100ca91906100ce565b5090565b6100f091905b808211156100ec5760008160009055506001016100d4565b5090565b90565b610bc2806101026000396000f3006080604052600436106100d0576000357c0100000000000000000000000000000000000000000000000000000000900463ffffffff1680632f265cf7146100d5578063518ab2a81461011a5780635938750d146101455780637021939f146101e45780637e1c0c09146102295780637ff9b5961461025457806381c407151461027f578063a03fa7e3146102eb578063a6f2ae3a1461032e578063cdf58d3514610338578063d7841a84146103c2578063df2d5ec7146103fd578063e4494a0f14610446578063ecd098b014610471575b600080fd5b3480156100e157600080fd5b5061010460048036038101908080356000191690602001909291905050506104b6565b6040518082815260200191505060405180910390f35b34801561012657600080fd5b5061012f6104db565b6040518082815260200191505060405180910390f35b34801561015157600080fd5b50610186600480360381019080803573ffffffffffffffffffffffffffffffffffffffff1690602001909291905050506104e9565b6040518083815260200180602001828103825283818151815260200191508051906020019060200280838360005b838110156101cf5780820151818401526020810190506101b4565b50505050905001935050505060405180910390f35b3480156101f057600080fd5b5061021360048036038101908080356000191690602001909291905050506105cb565b6040518082815260200191505060405180910390f35b34801561023557600080fd5b5061023e6105e3565b6040518082815260200191505060405180910390f35b34801561026057600080fd5b506102696105e9565b6040518082815260200191505060405180910390f35b34801561028b57600080fd5b506102946105ef565b6040518080602001828103825283818151815260200191508051906020019060200280838360005b838110156102d75780820151818401526020810190506102bc565b505050509050019250505060405180910390f35b3480156102f757600080fd5b5061032c600480360381019080803573ffffffffffffffffffffffffffffffffffffffff16906020019092919050505061064b565b005b6103366106d3565b005b34801561034457600080fd5b50610379600480360381019080803573ffffffffffffffffffffffffffffffffffffffff1690602001909291905050506107d8565b604051808373ffffffffffffffffffffffffffffffffffffffff1673ffffffffffffffffffffffffffffffffffffffff1681526020018281526020019250505060405180910390f35b3480156103ce57600080fd5b506103fb60048036038101908080356000191690602001909291908035906020019092919050505061081c565b005b34801561040957600080fd5b5061042860048036038101908080359060200190929190505050610aa7565b60405180826000191660001916815260200191505060405180910390f35b34801561045257600080fd5b5061045b610aca565b6040518082815260200191505060405180910390f35b34801561047d57600080fd5b506104a06004803603810190808035600019169060200190929190505050610ad0565b6040518082815260200191505060405180910390f35b6000600160008360001916600019168152602001908152602001600020549050919050565b600060045460035403905090565b600060606000808473ffffffffffffffffffffffffffffffffffffffff1673ffffffffffffffffffffffffffffffffffffffff168152602001908152602001600020600101546000808573ffffffffffffffffffffffffffffffffffffffff1673ffffffffffffffffffffffffffffffffffffffff168152602001908152602001600020600201808054806020026020016040519081016040528092919081815260200182805480156105bb57602002820191906000526020600020905b8154815260200190600101908083116105a7575b5050505050905091509150915091565b60016020528060005260406000206000915090505481565b60035481565b60055481565b6060600280548060200260200160405190810160405280929190818152602001828054801561064157602002820191906000526020600020905b81546000191681526020019060010190808311610629575b5050505050905090565b60003073ffffffffffffffffffffffffffffffffffffffff16311015151561067257600080fd5b8073ffffffffffffffffffffffffffffffffffffffff166108fc3073ffffffffffffffffffffffffffffffffffffffff16319081150290604051600060405180830381858888f193505050501580156106cf573d6000803e3d6000fd5b5050565b6000600554348115156106e257fe5b04905060045481111515156106f657600080fd5b336000803373ffffffffffffffffffffffffffffffffffffffff1673ffffffffffffffffffffffffffffffffffffffff16815260200190815260200160002060000160006101000a81548173ffffffffffffffffffffffffffffffffffffffff021916908373ffffffffffffffffffffffffffffffffffffffff160217905550806000803373ffffffffffffffffffffffffffffffffffffffff1673ffffffffffffffffffffffffffffffffffffffff168152602001908152602001600020600101600082825401925050819055508060046000828254039250508190555050565b60006020528060005260406000206000915090508060000160009054906101000a900473ffffffffffffffffffffffffffffffffffffffff16908060010154905082565b600080600061082a85610ad0565b92507fffffffffffffffffffffffffffffffffffffffffffffffffffffffffffffffff831415151561085b57600080fd5b60008060003373ffffffffffffffffffffffffffffffffffffffff1673ffffffffffffffffffffffffffffffffffffffff16815260200190815260200160002060020180549050141561093457600091505b600280549050821015610933576000803373ffffffffffffffffffffffffffffffffffffffff1673ffffffffffffffffffffffffffffffffffffffff1681526020019081526020016000206002016000908060018154018082558091505090600182039060005260206000200160009091929091909150555081806001019250506108ad565b5b6109cc6000803373ffffffffffffffffffffffffffffffffffffffff1673ffffffffffffffffffffffffffffffffffffffff1681526020019081526020016000206002018054806020026020016040519081016040528092919081815260200182805480156109c257602002820191906000526020600020905b8154815260200190600101908083116109ae575b5050505050610b4d565b6000803373ffffffffffffffffffffffffffffffffffffffff1673ffffffffffffffffffffffffffffffffffffffff168152602001908152602001600020600101540390508360016000876000191660001916815260200190815260200160002060008282540192505081905550836000803373ffffffffffffffffffffffffffffffffffffffff1673ffffffffffffffffffffffffffffffffffffffff16815260200190815260200160002060020184815481101515610a8957fe5b90600052602060002001600082825401925050819055505050505050565b600281815481101515610ab657fe5b906000526020600020016000915090505481565b60045481565b600080600090505b600280549050811015610b23578260001916600282815481101515610af957fe5b9060005260206000200154600019161415610b1657809150610b47565b8080600101915050610ad8565b7fffffffffffffffffffffffffffffffffffffffffffffffffffffffffffffffff91505b50919050565b6000806000809150600090505b8351811015610b8c578381815181101515610b7157fe5b90602001906020020151820191508080600101915050610b5a565b81925050509190505600a165627a7a7230582056e4561ea58326f99ee6349671da4836c9fea28add5ec2312f2e56eb3ac135bd0029",
  "source": "pragma solidity ^0.4.18;\n\n// Create the consturctor for the Object\n\ncontract Voting{\n\n  // Uses to store related data about the entity\n  struct voter{\n    address voterAddress;\n    uint tokensBought;\n    uint[] tokensUsedPerCandidate;\n  }\n\n  mapping (address => voter) public voterInfo;\n\n  mapping (bytes32 => uint) public votesReceived;\n\n  bytes32[] public candidatesList;\n\n  uint public totalTokens;\n  uint public balanceTokens;\n  uint public tokenPrice; \n\n  // This is the actual constructor whih we can use to initiate the voting contract. We will set the price and the list of candidates.\n  constructor (uint tokens, uint pricePerToken, bytes32[] candidateNames)public{\n    candidatesList = candidateNames;\n    totalTokens = tokens;\n    balanceTokens = tokens;\n    tokenPrice = pricePerToken;\n  }\n\n  function buy() payable public {\n    // Sets the toal of the amount of tokens you want to buy\n    // The value of the ether is set by msg.value\n    // Based on the ether value and the token price we can find the total price and assign that to the voter.\n    // THe buyers address is accessed through Message.sender\n    uint tokensToBuy = msg.value / tokenPrice;\n    require(tokensToBuy <= balanceTokens);\n    voterInfo[msg.sender].voterAddress = msg.sender;\n    voterInfo[msg.sender].tokensBought += tokensToBuy;\n    balanceTokens -= tokensToBuy;\n  }\n\n  function totalVotesFor(bytes32 candidate) view public returns (uint) {\n    return votesReceived[candidate];\n  }\n\n  function VoteForCandidate(bytes32 candidate, uint votesInTokens) public {\n      uint index = indexOfCandidate(candidate);\n      require(index != uint(-1));\n\n      if(voterInfo[msg.sender].tokensUsedPerCandidate.length == 0){\n        for(uint i=0; i < candidatesList.length; i++){\n          voterInfo[msg.sender].tokensUsedPerCandidate.push(0);\n        }\n      }\n\n      uint availableTokens = voterInfo[msg.sender].tokensBought - totalTokensUsed(voterInfo[msg.sender].tokensUsedPerCandidate);\n      votesReceived[candidate] += votesInTokens;\n      voterInfo[msg.sender].tokensUsedPerCandidate[index] += votesInTokens;\n    }\n\n    function totalTokensUsed(uint[] tokensUsedPerCandidate) private pure returns (uint){\n      uint totalUsedTokens = 0;\n      for(uint i = 0; i < tokensUsedPerCandidate.length; i++) {\n        totalUsedTokens += tokensUsedPerCandidate[i];\n      }\n          return totalUsedTokens;\n    }\n\n    function indexOfCandidate(bytes32 candidate) view public returns (uint){\n      for(uint i = 0; i < candidatesList.length; i++){\n        if(candidatesList[i] == candidate){\n          return i;\n        }\n      }\n      return uint(-1); \n    }\n\n    function tokensSold() view public returns (uint) {\n      return totalTokens - balanceTokens;\n    }\n\n    function voterDetails(address user) view public returns (uint, uint[]) {\n      return (voterInfo[user].tokensBought, voterInfo[user].tokensUsedPerCandidate);\n    }\n\n    function transferTo(address account) public {\n      require(address(this).balance >= 0);\n      account.transfer(this.balance);\n    }\n\n    function allCandidates() view public returns (bytes32[]) {\n      return candidatesList;\n    }\n}\n\n\n",
  "sourcePath": "/Users/justinrice/Documents/Blockchain/TruffleReact/contracts/Voting.sol",
  "compiler": {
    "name": "solc",
    "version": "0.4.24+commit.e67f0147.Emscripten.clang"
  },
  "schemaVersion": "2.0.1",
  "updatedAt": "2018-08-25T00:47:50.917Z"
}